:020000040800F2
:10000000A00600209D010008A5010008A701000826
:10001000A9010008AB010008AD01000800000000C4
:10002000000000000000000000000000AF01000818
:10003000B101000800000000B3010008B50100088C
:10004000B7010008B7010008B7010008350D000826
:10005000B7010008B7010008B7010008B7010008A0
:10006000B7010008B7010008B7010008B701000890
:10007000B7010008B7010008B7010008B701000880
:10008000B7010008B7010008B7010008B701000870
:10009000B7010008B7010008B7010008B701000860
:1000A000B7010008B7010008B7010008B701000850
:1000B000B7010008B7010008B7010008B701000840
:1000C000B7010008B7010008B7010008B701000830
:1000D000B7010008B7010008B7010008B701000820
:1000E000B7010008ED090008B7010008B7010008D2
:1000F000B7010008B7010008B7010008B701000800
:10010000B7010008B7010008B7010008B7010008EF
:10011000B7010008B7010008B7010008B7010008DF
:10012000B7010008B7010008B7010008B7010008CF
:10013000B7010008B7010008B7010008B7010008BF
:10014000B7010008B7010008B7010008B7010008AF
:10015000B7010008B7010008B7010008B70100089F
:10016000B7010008B7010008B7010008B70100088F
:10017000B7010008B7010008B7010008000000003F
:10018000B7010008B7010008DFF80CD000F034F91F
:1001900000480047A12F0008A0060020064880471D
:1001A00006480047FEE7FEE7FEE7FEE7FEE7FEE75C
:1001B000FEE7FEE7FEE7FEE7B90D0008890100084B
:1001C0002DE9FE4F81EA030404F0004421F00041D0
:1001D00000944FF0000B23F0004350EA01045ED07E
:1001E00052EA03045BD0C3F30A54C1F30A552C440A
:1001F000A4F2F3340194A0FB0254C1F3130141F4BF
:100200008011C3F3130343F4801301FB024400FB8A
:10021000034E840A970A44EA815447EA8357A4FBB1
:10022000076802958D0A05FB07854FEA932C04FBAE
:100230000C542705029D4FEA065847EA1637B5EBDE
:1002400008056EEB070C870E920E47EA811742EA0B
:100250008312A7FB0201B6EB0B0164EB00042B0D2C
:1002600043EA0C335E1844EB1C50DA465146E7FB78
:100270000201C5F313044FEA0B3343EA14534FEA68
:100280000432019C43EA0603A4F10C040294009C8E
:10029000CDE900B400F061F803B0BDE8F08F0020B4
:1002A0000146F9E70EB540F2334102910021CDE954
:1002B00000110A460B4600F050F803B000BDC1F330
:1002C0000A5210B5C1F3130140F2FF3341F480111B
:1002D0009A4201DA002010BD40F233439A42A2F262
:1002E000334203DC524200F019F810BD904010BDBB
:1002F00030B50B46014600202022012409E021FAF6
:1003000002F59D4205D303FA02F5491B04FA02F5F2
:100310002844151EA2F10102F1DC30BD202A04DBC5
:10032000203A21FA02F00021704721FA02F3D0406E
:10033000C2F12002914008431946704710B5141EBF
:1003400073F1000408DA401C41F1000192185B418E
:100350001A4301D120F0010010BD2DE9F04D924665
:100360009B4611B1B1FA81F202E0B0FA80F220327C
:10037000904600F053F804460F4640EA0A0041EA6E
:100380000B0153465A46084313D0114653EA010065
:1003900019D0C8F140025046FFF7C0FF05460E468F
:1003A00050465946424600F039F8084305D001202E
:1003B00004E020463946BDE8F08D0020054346EABA
:1003C000E0762C4337430A986305E40AA0EB080063
:1003D0000022FD0A44EA47540A3002D500200146B3
:1003E000E9E7010510196941DDE90845001969418E
:1003F000BDE8F04DA2E70000064C074D06E0E068BE
:1004000040F0010394E8070098471034AC42F6D35B
:10041000FFF7BEFEC8310008E8310008202A04DBDF
:10042000203A00FA02F1002070479140C2F1200307
:1004300020FA03F319439040704770B58C1810F8F8
:10044000015B15F0070301D110F8013B2A1106D119
:1004500010F8012B03E010F8016B01F8016B5B1E33
:10046000F9D12B0705D40023521E0DD401F8013B0E
:10047000FAE710F8013BCB1A921C03E013F8015B7A
:1004800001F8015B521EF9D5A142D8D3002070BDFE
:100490000029816802D041F0010101E021F0010151
:1004A00081607047084B10B5D3F8042307490A4010
:1004B000D0E900142143D0E9024004432143114311
:1004C000C3F8041310BD000000200140E030FCFF21
:1004D000F0B501219BB0880500F018FA01210F0248
:1004E000384600F02BFA0121084600F00FFA0320ED
:1004F0008DF868000425002419958DF86B4019A922
:10050000294800F091F92948029029480226CDE9AE
:100510000040CDE903460015CDE9054040000790B5
:100520008000CDE908070001CDE90A050125CDE9E4
:100530000C54204F694638460E9400F00DF9012105
:10054000384600F0FFF815944FF4A0601694CDE9FA
:10055000174015A8FFF7A6FF119413946806144CD2
:100560000F908DF840504C3C8DF841508DF8506004
:100570000FA9204600F034F804230122022120466E
:1005800000F054F80121204600F016F80121204621
:1005900000F01CF801212046FFF77AFF204600F00A
:1005A0007FF81BB0F0BD00000000024024000020D6
:1005B0004C200140106402400029816802D041F4BF
:1005C000807101E021F480718160704700298168A9
:1005D00002D041F4007101E021F4007181607047A4
:1005E00030B542680F4B0C791A400B6842EA04227E
:1005F0001343436082680C4B4D791A40D1E90343A1
:1006000023438C6844EA4504234313438360C26A4E
:10061000097D22F47002491EC9B242EA0151C16249
:1006200030BD0000FFFEFFFCFDF7FFC070B50724E2
:1006300009290AD9C568A1F10A0606EB4606B440A5
:10064000A543B3401D43C56007E0056901EB4106C2
:10065000B440A543B3401D4305611F23072A09D2B7
:10066000446B521E02EB820293409C4391400C4328
:10067000446370BD0D2A09D2046BD21F02EB8202C3
:1006800093409C4391400C43046370BDC46A0D3A8F
:1006900002EB820293409C4391400C43C46270BDC4
:1006A000816841F080418160704700002DE9F04190
:1006B000214D4021284600F018F9204F204C0128F8
:1006C00016D1607C012813D14021284600F00DF995
:1006D0000128F9D0E07B401CE073E07B4FF0020181
:1006E000C007384602D000F007F901E000F006F933
:1006F0004FF480763146284600F0F7F8012819D1EA
:10070000607C012816D13146284600F0EEF8012819
:10071000F9D0E07B401CE073E07B4FF02001C00784
:10072000384603D0BDE8F04100F0E6B8BDE8F0413E
:1007300000F0E4B8BDE8F08100080240001002407B
:10074000000000200029016802D041F0010101E011
:1007500021F001010160704730B50368124ACC688E
:1007600013400A682243D1E905452C432243CC6952
:1007700022430C6A22434C6A22438C6A22434C6B0C
:1007800022438C6B22431A430260426922F0070322
:10079000D1E90B2422431A4342610A6942604A6844
:1007A00082608968C16030BD3F801CF001490860EB
:1007B00070470000143C01401CB50121152000F0D9
:1007C000A5F82220009001208DF8040000248DF867
:1007D000064003208DF805008DF8074069460F4854
:1007E00000F022F84FF4A0708DF8064000908DF8CC
:1007F00004408DF807406946094800F015F84FF4A9
:10080000A0608DF8064000908DF804408DF80740F8
:100810006946044800F008F81CBD000000100240C2
:100820000008024000000240F0B500230124032725
:100830000D6804FA03F21540954242D1D0F800C089
:100840005E0007FA06F52CEA050CC0F800C091F826
:1008500004C0D0F800E00CFA06FC4CEA0E0CC0F81C
:1008600000C091F804C0BCF1010F02D0BCF1020F2E
:100870001FD1D0F808C02CEA050CC0F808C091F8C8
:1008800005C0D0F808E00CFA06FC4CEA0E0CC0F8E3
:1008900008C0D0F804C02CEA020CC0F804C04268BA
:1008A00091F806C00CFA03FC1FFA8CFC42EA0C0219
:1008B0004260C268AA43C260CA79C568B2402A438E
:1008C000C2605B1C102BB3D3F0BD4B07DB0E9A400C
:1008D000C90810B500EB8100016A0F249C40A143B8
:1008E0000162016A1143016210BD024600201269D3
:1008F0000A4200D00120704741837047018370474E
:10090000014908627047000000000E42044A0029B5
:10091000116801D0014300E081431160704700007D
:1009200030380240044A0029116801D0014300E038
:10093000814311607047000040380240044A00299A
:10094000116801D0014300E081431160704700004D
:100950004438024002460020510901290BD00229E7
:100960000CD00849096802F01F02012393400B4292
:1009700000D00120704703497439F3E70149091F8A
:10098000F0E7000074380240054900220A700A703E
:10099000012802D0042801D105200870704700000A
:1009A000703802400149086070470000800E4742DD
:1009B00001490860704700003C0E4742C0F3012126
:1009C000032907D1074A116821F4F81306490140A9
:1009D00019431160034968310A68C0F30B000243F0
:1009E0000A60704708380240FFFCFF0F10B54FF453
:1009F0008054204600F084F820B1204600F028F80A
:100A0000AFF300804FF40054204600F079F820B195
:100A1000204600F01DF8AFF30080BDE810404FF411
:100A20000030FFF7C3BE010901EB810100F00F00A8
:100A300000EB4100C0B27047002103E0491C0A38B6
:100A4000C9B2C0B20A28F9D2090740EA116070475A
:100A5000C0F30F1040F08000C1430348026802F069
:100A600080021143016070470C28004008B5002047
:100A700000900C480168490612D44FF0FF31016024
:100A800083130168009A01F04001521C00929A42BF
:100A900001D00029F5D00068400601D4002008BD2F
:100AA000012008BD0C2800400248016821F08001A7
:100AB000016070470C28004010B50C460E490968CB
:100AC0000E4A11400A0CE270C1F30423637001F076
:100AD0003F03A370C1F34231217000280BD11046AF
:100AE000FFF7A1FFE0706078FFF79DFF6070A078CE
:100AF000FFF799FFA07010BD042800403FFFFF00E2
:100B00000B4A0021126802F00403094A383A1268BD
:100B100003EAD03302401A43064B1B6803EA101065
:100B200003D00004000C00D00121084670470000EB
:100B3000402800400C280040024800680149243940
:100B4000096870472828004010B50C460F4909680D
:100B50000F4A1140C1F305422270C1F306236370AE
:100B600001F07F03A370402303EA1141E1700028E4
:100B70000BD11046FFF757FF20706078FFF753FF47
:100B80006070A078FFF74FFFA07010BD00280040F4
:100B90007F7F7F0070B5124D04460026CA20286072
:100BA00053202860FFF762FFA8B10D481C38016888
:100BB00021F040010160016822681143016008488A
:100BC000A168143801600168A28841EA024101600D
:100BD000FFF76AFF0126FF202860304670BD000045
:100BE0002428004008B5034901EB8000009000680C
:100BF00008BD00005028004070B50C460100607828
:100C00004FF000062AD0FFF70EFFA078FFF70BFF8A
:100C1000A078E17840EA014560782178000240EA56
:100C200041300543194CCA20206053202060FFF753
:100C30001DFF78B116480540144820380560FFF7BD
:100C400033FF12481C380068800602D400F084F894
:100C500000B10126FF202060304670BDC10603D5DB
:100C600020F010000A306070E078FFF7E5FE050420
:100C70006078FFF7E1FE45EA0025A078FFF7DCFE8B
:100C80000543207845EA4035CCE7000024280040A1
:100C90003FFFFF002DE9F041244F0C4602004FF0CA
:100CA000000620783A6831464FEA426204D0002AB2
:100CB00015DAFFF7B8FE13E0002A00DBE170FFF75A
:100CC000BBFE05046078FFF7B7FE45EA0025A07873
:100CD000FFF7B2FE0543E07845EA00450AE0E1701F
:100CE000A078217840EA01456078E178000240EA86
:100CF000014005430D4CCA201C3420605320206065
:100D0000FFF7B4FE68B10A48054008480838056096
:100D1000FFF7CAFE3868800602D400F01DF800B163
:100D20000126FF2020603046BDE8F0810828004001
:100D30007F7F7F0010B54FF480442046FFF7E0FE30
:100D4000002807D02046FFF783FE2002FFF72EFD84
:100D5000AFF3008010BD000018B5002010490090CE
:100D6000CA200860532008600D481838026822F035
:100D7000A00202604FF400340268009B02F02002DF
:100D80005B1C0093A34201D0002AF5D000688006C6
:100D900001D5012000E00020FF220A6018BD0000FC
:100DA0002428004008B5034A02EB8000009001604F
:100DB00008BD0000502800401048016841F470014F
:100DC00001600F48016841F0010101600C4A0021F7
:100DD0000832116002680B4B1A400260031D0A4A78
:100DE0001A60026822F48022026005480C3001601B
:100DF00002495806803908607047000088ED00E01D
:100E000000380240FFFFF6FE103000240029018860
:100E100002D041F0800101E021F0800101807047A3
:100E20000029018802D041F0010101E021F0010117
:100E300001807047002930F8441F02D041F400417E
:100E400001E0C1F30E0101807047000030B5028C53
:100E500022F001020284028C8388048B22F00202B9
:100E600024F073050C882C438D8915434A882A4346
:100E70000C4DA84202D00C4DA8420DD122F008051D
:100E8000CA8923F440732A4322F004058A882A433E
:100E90000D8A1D434B8A2B438380048389684163F9
:100EA000028430BD0000014000040140028B22F0AA
:100EB00008020A430283704770B5028C22F01002C8
:100EC0000284028C8488038B0D8823F4E6464FF657
:100ED000FF7303EA052535438E8922F0200203EAD9
:100EE000061616434A8803EA02123243104EB042F5
:100EF00002D0104EB04215D122F08006CA8924F4E7
:100F0000406403EA0212324322F040068A8803EA70
:100F1000021232430E8A03EA860626434C8A03EA0B
:100F2000840434438480058389688163028470BDAE
:100F30000000014000040140028B4FF6FF7322F4D1
:100F4000006203EA012111430183704770B5028CEE
:100F500022F480720284028C8488838B0D8823F0B3
:100F600073031D4322F400738E894FF6FF7202EA69
:100F700006261E434B8802EA03233343104EB04239
:100F800002D0104EB04215D123F40066CB8924F470
:100F9000405402EA0323334323F480668B8802EA39
:100FA000032333430E8A02EA061626434C8A02EADA
:100FB00004143443848085838968C163038470BDCD
:100FC0000000014000040140828B22F008020A4325
:100FD0008283704730B501218BB00846FFF7AEFC25
:100FE00001211020FFF792FC4FF4285005900220B9
:100FF0008DF8180003208DF8190000242F4D8DF86E
:101000001A408DF81B4005A92846FFF70DFC012268
:1010100009212846FFF759FC01220B212846FFF73A
:1010200054FC01220D212846FFF74FFC2448254996
:10103000254D0068ADF82440B0FBF1F0401EADF83E
:101040001C0063200890ADF81E4007A9284600F058
:101050003DF86020ADF800000120ADF8020004204A
:10106000ADF80C40ADF80400ADF80E4069462846D6
:101070000294FFF7EBFE08212846FFF717FF6946A9
:101080002846FFF719FF08212846FFF755FF694654
:101090002846FFF75BFF08212846FFF795FF01214F
:1010A0002846FFF7B3FE01212846FFF7B9FE0121CC
:1010B0002846FFF7BFFE0BB030BD00000010024015
:1010C0006C020020400D03000000014030B5028892
:1010D000164B174C98420DD0A0420BD0B0F1804F68
:1010E00008D0144DA84205D0134DA84202D0134D8C
:1010F000A84203D122F070054A882A43104DA84225
:1011000006D0104DA84203D022F440750A892A4324
:1011100002804A68C2620A880285984201D0A042D1
:1011200001D1897A01860121818230BD0000014010
:10113000000401400004004000080040000C004092
:10114000001000400014004010B510B101280BD071
:1011500016E00120FFF726FC6120FFF7FBFB0028CB
:10116000FAD04FF4007009E00120FFF70DFC412098
:10117000FFF7F0FB0028FAD04FF48070FFF71EFC59
:101180000120FFF715FCFFF7E7FDBDE8104041F235
:1011900034210020FFF706BE70B50D001449044647
:1011A00021D00120FFF7D0FC11480178617141780E
:1011B000217180782070FFF7BFFC60800C49091D09
:1011C0009DB10120FFF778FC0948001DC1786172CC
:1011D000417821728178E1710078A071204600F099
:1011E00009F8E06070BD0020DCE70020EAE70000BD
:1011F00040020020F0B5427A002340F2B27102F5BD
:10120000FA628A4201D20020F0BD6425AC004FF49E
:10121000B776771E15E000BF5FEA817C06D1B1FB8F
:10122000F5FC05FB1C1CBCF1000F0FD1B1FBF4FC5D
:1012300004FB1C1CBCF1000F08D0BC46491C6344D5
:1012400089B29142E8D301211A4E19E0B446F5E77C
:10125000970704D1B2FBF5F705FB17273FBBB2FB9D
:10126000F4F704FB172717B35FF0000707EB4707F6
:1012700006EB87070F44491C17F8017C89B23B44F1
:10128000077A8F42E4D8C1795B1E0B4A1944514357
:101290004279C2EB4213C3EB022201EB0211027945
:1012A0000078C2EB021201EB82010844F0BD012775
:1012B000DCE7000054020020805101002DE9FF41CD
:1012C000074601210807FFF72DFB0120FFF718FB58
:1012D0000020FFF787FC44F22131204C4FF4804579
:1012E0004FF48008884205D1216008E00020FFF714
:1012F0002BFF06E041F23426B04212D12660002FC7
:10130000F4D0FFF729FD2846FFF7A2FB4046FFF780
:101310004DFA00216846FFF73FFF206804B0BDE8A2
:10132000F081002538462560FFF70EFF01208DF87B
:1013300007008DF806008DF808000F208DF80900D1
:101340008DF805508DF804508DF800500021684646
:1013500000F006F800202660E0E700003C020020D4
:101360001FB50C460129C17929D08DF80710017AE3
:101370008DF80810417A8DF8091041798DF8051023
:1013800001798DF8041001788DF8001090F806109E
:101390008DF806109DF8091063297DD89DF8081076
:1013A000002979D09DF808100C2975D89DF80710F0
:1013B000002971D09DF8091089074BD054E0C279FB
:1013C00001F00F01120902EB820201EB42018DF8DC
:1013D0000710017A027A01F00F01120902EB820272
:1013E00001EB42018DF80810417A427A01F00F01B9
:1013F000120902EB820201EB42018DF809104179DA
:10140000427901F00F01120902EB820201EB420165
:101410008DF805100179027901F00F01120902EB34
:10142000820201EB42018DF804100178027801F08C
:101430000F01120902EB820201EB42018DF800104C
:101440008179827901F00F01120902EB820201EB2E
:1014500042019DE79DF80910642201F5FA61B1FB94
:10146000F2F302FB131191BB9DF809104FF4C872FF
:1014700001F5FA61B1FBF2F302FB131139B300215C
:1014800001EB41014FF0FF3202EB81019DF8082092
:101490002E4B1A44515C00E016E09DF80720914263
:1014A00012D39DF8051017290ED89DF804103B297A
:1014B0000AD89DF800103B2906D89DF8061019B1EE
:1014C0009DF80610072905D9012004B010BDFFE7DB
:1014D0000121D5E742791D4914390A7002794A7011
:1014E00002788A70C179194A103A9170017A517064
:1014F000417AD170807910701548002101601F2158
:10150000416040F2FF318160FFF744FB0F49012C3D
:10151000A1F1140113D00020FFF7BCFB0B495FF0D1
:1015200000001039FFF768FB08481838006820B140
:1015300044F221310020FFF735FC0020C5E70120EF
:10154000FFF7A8FB014910390120EBE75402002006
:10155000940200200FB4054B10B503A9044A029869
:1015600000F018F810BC5DF814FB0000F92A000820
:101570008002002002E008C8121F08C1002AFAD128
:1015800070477047002001E001C1121F002AFBD103
:10159000704700002DE9FF4F89B09B4604460025A7
:1015A00006E025280BD05A460B999047641C6D1C09
:1015B00020780028F5D10DB02846BDE8F08F00272F
:1015C000B8460122474900E0074314F8013F203B99
:1015D00002FA03F00842F7D120782E2819D114F826
:1015E000010F47F004072A280ED06FF02F02207851
:1015F000A0F1300109290CD808EB880102EB410168
:1016000000EB0108641CF2E70A98641C50F8048B94
:101610000A9020780028CED0642808D0692806D007
:1016200075281ED05A460B9990476D1C58E00A99B0
:101630004FF00A0901C90A91002802DA40422D211F
:1016400002E0390504D52B218DF82010012103E09B
:10165000F90704D02021F7E78A4608AE0DE0002103
:10166000FAE70A994FF00A0901C90A91F7E74946D2
:10167000FEF73EFE303106F8011D0028F7D1ADEB34
:10168000060000F12009780701D44FF00108C84591
:1016900002DDA8EB090000E000208046002706E0FC
:1016A00008A85A46C05D0B9990476D1C7F1C574592
:1016B000F6DB04E030205A460B9990476D1CB8F1D8
:1016C0000001A8F10108F5DC05E016F8010B5A4607
:1016D0000B9990476D1CB9F10001A9F10109F4DCE7
:1016E000641C65E7092801002DE9F05FFF4C4FF409
:1016F000807739462046FFF7F8F80026DFF8F083B8
:101700004FF00109012814D139462046FFF7EDF8C2
:101710000128F9D098F80000401C88F8000088F8EB
:10172000016001F027FB98F800001A2801D188F821
:10173000009098F90000EF4CEF4D4FF0020A4FF087
:10174000180B1A287AD2DFE810F079001A00350059
:101750007B00C40009017601BC01520299020C030E
:1017600053039D03E30355049C04E6044605B805B2
:101770003906BB063F07CD077508E108370988F829
:101780001190A0794FF00001012808460ED001F019
:1017900015FBA179D9A0FFF7DDFE0821002001F09B
:1017A0000DFB237822796179D6A0FDE301F006FBD9
:1017B000D8A0FAE388F811600021084601F0FEFA8B
:1017C000D6A0FFF7C7FE0021012001F0F7FA98F933
:1017D0000D3098F90C2098F90B10D4A0FFF7BAFE41
:1017E00040212846FFF781F8012810D140212846E2
:1017F000FFF77BF80128F9D098F80B00401C88F817
:101800000B0098F90B00002801DA88F80B603946C4
:101810002846FFF76AF8012810D139462846FFF715
:1018200064F80128F9D098F80B00401E88F80B00E6
:1018300098F90B00002801DA88F80B60BDE8F09FEA
:1018400088F8116098F80B0088F806000021084617
:1018500001F0B4FAB1A0FFF77DFE0021012001F0F4
:10186000ADFA98F90D3098F90C2098F90B10B3A047
:10187000FFF770FE40212846FFF737F8012810D106
:1018800040212846FFF731F80128F9D098F80C00DC
:10189000401C88F80C0098F90C00002801DA88F840
:1018A0000C6039462846FFF720F80128C6D1394692
:1018B0002846FFF71AF80128F9D098F80C00401EC6
:1018C00088F80C0098F90C000028B7DA88F80C604A
:1018D000B4E788F811600021084601F06FFA8FA084
:1018E000FFF738FE0021012001F068FA98F90D3069
:1018F00098F90C2098F90B1094A0FFF72BFE4021CB
:101900002846FEF7F2FF012810D140212846FEF7B5
:10191000ECFF0128F9D098F80D00401C88F80D0064
:1019200098F90D00002801DA88F80D60394628463C
:10193000FEF7DBFF012881D139462846FEF7D5FFA7
:101940000128F9D098F80D00401E88F80D0098F98C
:101950000D000028BCDA88F80D606FE788F8116088
:1019600098F80E00401C88F80E0098F80E00012828
:1019700013D10021084601F021FA68A0FFF7EAFD23
:101980000021012001F01AFA98F90D3098F90C2085
:1019900098F90B1071A0FFF7DDFD98F80E000A28EA
:1019A00001D188F80EA040212846FEF79EFF0128AD
:1019B0001FD101F0DFF940212846FEF796FF0128EC
:1019C000F9D098F8060088F80B000021084601F0CD
:1019D000F5F952A0FFF7BEFD0021012001F0EEF95C
:1019E00098F90D3098F90C2098F906105BA0FFF7D4
:1019F000B1FD39462846FEF778FF0128ADD101F048
:101A0000B9F939462846FEF770FF0128F9D088F861
:101A10000BB00021084601F0D1F940A0FFF79AFD74
:101A20000021012001F0CAF998F90D3098F90C2035
:101A300098F90B1093E188F811600021084601F035
:101A4000BDF94AA0FFF786FD0021012001F0B6F99B
:101A500098F9203098F91F2098F91E1033A0FFF74D
:101A600079FD40212846FEF740FF012810D1402192
:101A70002846FEF73AFF0128F9D098F81E00401CCE
:101A800088F81E0098F91E00002801DA88F81E6008
:101A900039462846FEF729FF0128AFD139462846A6
:101AA000FEF723FF0128F9D098F81E00401E88F8A1
:101AB0001E0098F91E000028BFF60AAF88F81E60C5
:101AC000BCE688F8116098F81E0088F82200002112
:101AD000084601F073F925A0FFF73CFD0021012025
:101AE00001F06CF998F9203048E000000000024055
:101AF0000000002084020020000802405448553AAB
:101B00002564200025643A25643A2564202020209D
:101B1000202000005448553A434E2000544849457F
:101B2000542042492031204241543A005F25643A12
:101B300025643A25642020424154200025643A5F00
:101B400025643A25642020424154200025643A252A
:101B5000643A5F25642020424154200025643A25E0
:101B6000643A256420205F4241542000544849458E
:101B7000542042492031205441543A0098F91F2002
:101B800098F91E10AFF24C00FFF7E4FC4021284604
:101B9000FEF7ABFE012810D140212846FEF7A5FE36
:101BA0000128F9D098F81F00401C88F81F0098F908
:101BB0001F00002801DA88F81F6039462846FEF722
:101BC00094FE01287FF484AE39462846FEF78DFE48
:101BD0000128F9D098F81F00401E88F81F0098F9D6
:101BE0001F000028BFF674AE88F81F6026E688F84C
:101BF00011600021084601F0E1F8AFF29000FFF714
:101C0000A9FC0021012001F0D9F898F9203098F9B9
:101C10001F2098F91E10AFF2CC00FFF79BFC40216B
:101C20002846FEF762FE012810D140212846FEF723
:101C30005CFE0128F9D098F82000401C88F82000AC
:101C400098F92000002801DA88F8206039462846F3
:101C5000FEF74BFE0128C9D139462846FEF745FE5E
:101C60000128F9D098F82000401E88F8200098F943
:101C700020000028BADA88F82060DFE588F81160D3
:101C800098F82100401C88F8210098F821000128CC
:101C900015D10021084601F091F8AFF23010FFF79E
:101CA00059FC0021012001F089F898F9203098F9B9
:101CB0001F2098F91E10AFF25C10FFF74BFC98F84C
:101CC00021000A2801D188F821A040212846FEF7EA
:101CD0000CFE012821D101F04DF840212846FEF7E5
:101CE00004FE0128F9D098F8220088F81E0000218F
:101CF000084601F063F8AFF28C10FFF72BFC0021CF
:101D0000012001F05BF898F9203098F91F2098F92C
:101D10002210AFF2B810FFF71DFC39462846FEF737
:101D2000E4FD0128A9D101F025F839462846FEF73F
:101D3000DCFD0128F9D088F81EB00021084601F02A
:101D40003DF8AFF2D810FFF705FC0021012001F0AB
:101D500035F898F9203098F91F2098F91E10FEA048
:101D6000FEE388F811600021084601F027F8FEA084
:101D7000FFF7F0FB0021012001F020F898F9143062
:101D800098F9132098F91210AFF26020FFF7E2FBE8
:101D900040212846FEF7A9FD012810D14021284600
:101DA000FEF7A3FD0128F9D098F81200401C88F82E
:101DB000120098F91200002801DA88F812603946FA
:101DC0002846FEF792FD0128ACD139462846FEF799
:101DD0008CFD0128F9D098F81200401E88F81200F6
:101DE00098F912000028BFF673AD88F8126025E557
:101DF00088F8116098F8120088F819000021084648
:101E000000F0DCFFD8A0FFF7A5FB0021012000F0C7
:101E1000D5FF98F9143098F9132098F91210AFF201
:101E2000E420FFF797FB40212846FEF75EFD0128DE
:101E300010D140212846FEF758FD0128F9D098F826
:101E40001300401C88F8130098F91300002801DAE9
:101E500088F8136039462846FEF747FD0128C6D1A9
:101E600039462846FEF741FD0128F9D098F81300BD
:101E7000401E88F8130098F913000028B7DA88F894
:101E80001360DBE488F811600021084600F096FF3B
:101E9000B5A0FFF75FFB0021012000F08FFF98F94C
:101EA000143098F9132098F91210AFF26030FFF750
:101EB00051FB40212846FEF718FD012810D1402192
:101EC0002846FEF712FD0128F9D098F81400401CAE
:101ED00088F8140098F91400002801DA88F81460D2
:101EE00039462846FEF701FD0128CAD13946284661
:101EF000FEF7FBFC0128F9D098F81400401E88F882
:101F0000140098F914000028BBDA88F8146095E4EE
:101F100088F8116098F81800401C88F8180098F8A4
:101F20001800012814D10021084600F047FF8EA0B8
:101F3000FFF710FB0021012000F040FF98F914305A
:101F400098F9132098F91210AFF2F030FFF702FB66
:101F500098F818000A2801D188F818A040212846CE
:101F6000FEF7C3FC012823D100F004FF40212846DE
:101F7000FEF7BBFC0128F9D098F8190088F8120088
:101F80000021084600F01AFF77A0FFF7E3FA0021CE
:101F9000012000F013FF98F9143098F9132098F9F4
:101FA0001910AFF2484001E000E203E2FFF7D2FA75
:101FB00039462846FEF799FC0128A8D100F0DAFE40
:101FC00039462846FEF791FC0128F9D088F812B06E
:101FD0000021084600F0F2FE63A0FFF7BBFA0021E3
:101FE000012000F0EBFE98F9143098F9132098F9CD
:101FF0001210B4E688F811600021084600F0DEFEF9
:102000005DA0FFF7A7FA0021012000F0D7FE98F9A4
:10201000173098F9162098F91510AFF2F040FFF735
:1020200099FA40212846FEF760FC012810D1402192
:102030002846FEF75AFC0128F9D098F81500401CF4
:1020400088F8150098F91500002801DA88F815605D
:1020500039462846FEF749FC0128AED139462846C4
:10206000FEF743FC0128F9D098F81500401E88F8C7
:10207000150098F915000028BFF62AAC88F81560FD
:1020800026E488F8116098F8150088F81A000021F5
:10209000084600F093FE38A0FFF75CFA002101200B
:1020A00000F08CFE98F9173098F9162098F9151061
:1020B000AFF27850FFF74EFA40212846FEF715FCA4
:1020C000012810D140212846FEF70FFC0128F9D045
:1020D00098F81600401C88F8160098F91600002899
:1020E00001DA88F8166039462846FEF7FEFB01281B
:1020F000C6D139462846FEF7F8FB0128F9D098F8F2
:102100001600401E88F8160098F916000028B7DA65
:1021100088F8166021E488F811600021084600F074
:102120004DFE15A0FFF716FA0021012000F046FE33
:1021300098F9173098F9162098F91510AFF2F45065
:10214000FFF708FA40212846FEF7CFFB01282AD1E5
:102150004021284618E0000025643A25643A2564A9
:1021600020205F544154200054484945542042499E
:102170002032204241543A005448494554204249B3
:102180002032205441543A00FEF7AFFB0128DFD043
:1021900098F81700401C88F8170098F917000028D5
:1021A00001DA88F8176039462846FEF79EFB0128B9
:1021B000B0D139462846FEF798FB0128F9D098F8A7
:1021C0001700401E88F8170098F917000028A1DAB8
:1021D00088F8176074E488F8116098F81B00401CB8
:1021E00088F81B0098F81B00012815D1002108462B
:1021F00000F0E4FDAFF28000FFF7ACF90021012010
:1022000000F0DCFD98F9173098F9162098F91510B0
:10221000AFF2B860FFF79EF998F81B000A2801D1C9
:1022200088F81BA040212846FEF75FFB012821D13A
:1022300000F0A0FD40212846FEF757FB0128F9D009
:1022400098F81A0088F815000021084600F0B6FD3D
:10225000AFF2DC00FFF77EF90021012000F0AEFDB7
:1022600098F9173098F9162098F91A10AFF21470EF
:10227000FFF770F939462846FEF737FB0128A9D148
:1022800000F078FD39462846FEF72FFB0128F9D0EB
:1022900088F815B00021084600F090FDAFF2281034
:1022A000FFF758F90021012000F088FD98F9173058
:1022B00098F9162098F9151051E588F8116088F8FA
:1022C000216088F80E6088F8186088F81B606079D3
:1022D00088F80200207988F80300207888F8040044
:1022E000A07988F8050040212846FEF7FEFA01286B
:1022F00020D140212846FEF7F8FA0128F9D098F8B5
:102300000500401C88F8050098F90500072801DD44
:1023100088F8059098F80200607198F80300207121
:1023200098F80400207098F80500A0710021FE487C
:10233000FFF716F839462846FEF7D7FA012821D1CB
:1023400039462846FEF7D1FA0128F9D098F8050059
:10235000401E88F8050098F90500012802DA0720D8
:1023600088F8050098F80200607198F80300207161
:1023700098F80400207098F80500A0710021EA4840
:10238000FEF7EEFFA0794FF00001012808460ED0BD
:1023900000F014FDA179E5A0FFF7DCF8072100208B
:1023A00000F00CFD237822796179E3A07EE100F052
:1023B00005FDE5A0FFF7CEF8FFF7EFB988F811604B
:1023C000607988F80200207988F80300207888F87E
:1023D0000400A07988F8050040212846FEF785FA18
:1023E000012820D140212846FEF77FFA0128F9D0A4
:1023F00098F80200401C88F8020098F9020017289B
:1024000001DD88F8026098F80200607198F8030016
:10241000207198F80400207098F80500A071002140
:10242000C148FEF79DFF39462846FEF75EFA0128AF
:1024300021D139462846FEF758FA0128F9D098F8F4
:102440000200401E88F8020098F90200002802DA13
:10245000172088F8020098F80200607198F80300CD
:10246000207198F80400207098F80500A0710021F0
:10247000AD48FEF775FFA0794FF00001012808462E
:102480000FD000F09BFCA179AFF69010FFF762F837
:102490000721002000F092FC237822796179ADA019
:1024A00004E100F08BFCAFF69410FFF753F808211D
:1024B000002000F083FC237822796179AAA0F5E05E
:1024C00088F81160607988F80200207988F80300A4
:1024D000207888F80400A07988F805004021284673
:1024E000FEF703FA012820D140212846FEF7FDF926
:1024F0000128F9D098F80300401C88F8030098F9E7
:1025000003003B2801DD88F8036098F80200607141
:1025100098F80300207198F80400207098F80500DE
:10252000A07100218048FEF71BFF39462846FEF7C0
:10253000DCF9012823D139462846FEF7D6F90128CF
:10254000F9D098F80300401E88F8030098F90300BA
:10255000002802DA3B2088F8030098F8020000E027
:1025600071E2607198F80300207198F804002070FF
:1025700098F80500A07100216B48FEF7F1FEA079E4
:102580004FF00001012808460FD000F017FCA17998
:10259000AFF69820FEF7DEFF0721002000F00EFCCA
:1025A00023782279617974A080E000F007FCAFF60F
:1025B0009C20FEF7CFFF0821002000F0FFFB2378CE
:1025C0002279617971A071E088F81160607988F8EA
:1025D0000200207988F80300207888F80400A079A8
:1025E00088F8050040212846FEF77FF9012820D110
:1025F00040212846FEF779F90128F9D098F804001F
:10260000401C88F8040098F904003B2801DD88F894
:10261000046098F80200607198F80300207198F83F
:102620000400207098F80500A07100213E48FEF7D4
:1026300097FE39462846FEF758F9012821D1394638
:102640002846FEF752F90128F9D098F80400401EF8
:1026500088F8040098F90400002802DA3B2088F882
:10266000040098F80200607198F80300207198F84F
:102670000400207098F80500A07100212A48FEF798
:102680006FFEA0794FF00001012808461BD000F032
:1026900095FBA179AFF69C30FEF75CFF0721002087
:1026A00000F08CFB2378227961793CA0FEF752FF81
:1026B0000021012000F082FBB8F82610BDE8F05F91
:1026C0003BA0FEF747BF00F079FBAFF6B830FEF74E
:1026D00041FF0821002000F071FB23782279617905
:1026E00038A0E3E788F81160607A88F80700207A5C
:1026F00088F80800E07988F8090040212846FEF7AC
:10270000F4F801286FD140212846FEF7EEF80128A1
:10271000F9D098F80900401C88F8090098F80700DB
:10272000607298F8080056E0840200205448553A38
:102730005F2564202000000025643A25643A256462
:1027400020202020202020005448553A5F434E206E
:10275000000000005F25643A25643A2564202020AB
:1027600020202020000000005F25643A25643A25DF
:10277000642020202020200025643A5F25643A252B
:1027800064202020202020200000000025643A5FE3
:1027900025643A25642020202020200025643A2545
:1027A000643A5F25642020202020202000000000C3
:1027B0006E6869657420646F3A25642A432020207E
:1027C0002020000025643A25643A5F2564202020FB
:1027D0002020200007E0207298F80900E071002115
:1027E0009B48FEF7BDFD39462846FEF77EF80128D6
:1027F00017D139462846FEF778F80128F9D098F81D
:102800000900401E88F8090098F80700607298F8DF
:102810000800207298F80900E07100218C48FEF74A
:102820009FFD0021084600F0C9FA637A227AE17917
:1028300088A05BE088F81160607A88F80700207A49
:1028400088F80800E07988F8090040212846FEF75A
:102850004CF801281DD140212846FEF746F80128F2
:10286000F9D098F80800401C88F8080098F908008A
:102870000C2801DD88F8089098F80700607298F835
:102880000800207298F80900E07100217048FEF7F6
:1028900067FD39462846FEF728F801281ED139463B
:1028A0002846FEF722F80128F9D098F80800401EC3
:1028B00088F8080098F90800012802DA0C2088F846
:1028C000080098F80700607298F80800207298F8DD
:1028D0000900E07100215E48FEF742FD0021084634
:1028E00000F06CFA637A227AE17960A003F5FA636A
:1028F000FEF730FE0021012000F060FA98F8103059
:1029000098F81D2098F81C105EA09AE088F81160D5
:10291000607A88F80700207A88F80800E07988F85B
:10292000090040212846FDF7E0FF012817D140218A
:102930002846FDF7DAFF0128F9D098F80700401C77
:1029400088F8070098F80700607298F8080020726D
:1029500098F80900E07100213D48FEF701FD394675
:102960002846FDF7C2FF01281DD139462846FDF74C
:10297000BCFF0128F9D098F80700401E88F807002E
:1029800098F90700002801DA88F8076098F807002E
:10299000607298F80800207298F80900E071002130
:1029A0002B48FEF7DDFC0021084600F007FA637AA9
:1029B000227AE17939A099E788F811604021284608
:1029C000FDF793FF01280AD140212846FDF78DFF2E
:1029D0000128F9D098F80A00401C88F80A00394606
:1029E0002846FDF782FF012810D139462846FDF719
:1029F0007CFF0128F9D098F80A00401E88F80A00E8
:102A000098F90A00002801DA88F80A6098F80A00A4
:102A100088F810000021084600F0D0F9637A227A85
:102A2000E17924A003F5FA63FEF794FD002101206B
:102A300000F0C4F998F8103098F81D2098F81C1090
:102A400022A003F5FA63BDE8F05FFEF783BD000046
:102A5000840200204420205F25643A25643A2564DE
:102A6000202020202020202020202000442020255D
:102A7000643A5F25643A256420202020202020200D
:102A80002020200041202025643A25643A25642036
:102A9000202020202020202020200000442020254D
:102AA000643A25643A5F25642020202020202020DD
:102AB0002020200044202025643A25643A25642003
:102AC0002020202020202020202000004120202520
:102AD000643A25643A5F25642020202020202020AD
:102AE0002020200008B54FF4FA71484300900028D8
:102AF00001D0401EFAE708BD10B50446C0B200F090
:102B00004DF9204610BD00002DE9F047DFF8C881DF
:102B10004FF4806739464046FDF7E7FE0025012661
:102B20006E4C012811D1B946474649463846FDF753
:102B3000DCFE0128F9D06078401C6070257000F040
:102B400019F96078072800D1667094F90100072808
:102B50000BD2DFE800F00A040C244A759B0084F8CD
:102B60002150A57326702576E576BDE8F087002113
:102B7000084600F023F95A48437A027AC17959A0ED
:102B800003F5FA63FEF7E6FC0021012000F016F9D8
:102B9000237C627F217F59A003F5FA634CE0E07A41
:102BA0004FF00001182808460FD000F007F959A08F
:102BB000FEF7D0FC0021012000F000F994F90D305F
:102BC00094F90C2094F90B1024E000F0F7F851A0D0
:102BD000FEF7C0FC0021012000F0F0F894F90D3060
:102BE00094F90C2094F90B1025E0A07F4FF0000120
:102BF0001828084610D000F0E1F84AA0FEF7AAFC19
:102C00000021012000F0DAF894F9203094F91F2017
:102C100094F91E1047A00FE000F0D0F841A0FEF795
:102C200099FC0021012000F0C9F894F9203094F9B2
:102C30001F2094F91E1043A0BDE8F047FEF78ABCA0
:102C4000A07C4FF00001182808460FD000F0B6F81D
:102C500040A0FEF77FFC0021012000F0AFF894F9BE
:102C6000143094F9132094F91210D3E700F0A6F869
:102C700038A0FEF76FFC0021012000F09FF894F9C6
:102C8000143094F9132094F91210D4E7607D4FF0BA
:102C90000001182808460FD000F090F831A0FEF788
:102CA00059FC0021012000F089F894F9173094F9BB
:102CB000162094F91510ADE700F080F829A0FEF772
:102CC00049FC0021012000F079F894F9173094F9BB
:102CD000162094F91510AEE7000002400000002015
:102CE0008402002044202025643A25643A2564208B
:102CF00020202020202020202020000041202025EE
:102D0000643A25643A2564202020202020202020B9
:102D10002020000054484945542042492031204297
:102D200041543A00544849455420424920312054E6
:102D300041543A0025643A25643A25642020204213
:102D40004154200025643A25643A2564202020540B
:102D500041542000544849455420424920322042E1
:102D600041543A00544849455420424920322054A5
:102D700041543A0010B5012000F006F8BDE81040BB
:102D8000C820FFF7AFBE000003494A6922F0800265
:102D90004A6100F099B8000000100240064910B5E1
:102DA0004A6942F080024A6100F08EF8BDE81040A6
:102DB0001420FFF797BE00000010024008B528B1AC
:102DC000012810D0022810D0032810D08DF8001050
:102DD0009DF8000040F08000FFF7D6FFBDE80840F6
:102DE0000A20FFF77FBE4031F0E71431EEE754319F
:102DF000ECE710B500F02EF83320FFF7C5FF642094
:102E0000FFF770FE3220FFF7BFFF4FF4FA74204641
:102E1000FFF768FE2820FFF7B7FF2046FFF762FEA6
:102E20000120FFF7B1FF2046FFF75CFE0620FFF709
:102E3000ABFF2046FFF756FE0C20FFF7A5FF20460C
:102E4000FFF750FE0220FFF79FFF2046BDE810402D
:102E5000FFF748BE7CB501211720FDF757FD802004
:102E6000009001208DF8040002248DF80540002018
:102E70008DF8070069461048FDF7D6FC69460F48F3
:102E80000094FDF7D1FC0E4E0825694630460095AA
:102E9000FDF7CAFC694630460094FDF7C5FC009575
:102EA000084D69462846FDF7BFFC69462846009450
:102EB000FDF7BAFC7CBD0000001002400004024097
:102EC00000000240000802402DE9F041314E074663
:102ED000306840F0020030602F4C3806206802D580
:102EE00040F0020001E020F0020020607806206837
:102EF00002D540F0080001E020F008002060274DD6
:102F0000B806686902D540F0020001E020F0020036
:102F10006861F806686902D540F0080001E020F019
:102F200008006861306820F0020030600120FFF77F
:102F3000D9FD306840F0020030603807206802D5C3
:102F400040F0020001E020F00200206078072068D5
:102F500002D540F0080001E020F008002060B8072A
:102F6000686902D540F0020001E020F002006861CB
:102F7000F807686902D040F0080001E020F008007E
:102F80006861306820F002003060BDE8F041012047
:102F9000FFF7A8BD140402401408024000000240DC
:102FA000FDF70AFC2D4C02212046FDF7A7FC20214D
:102FB0002046FDF7A3FCFDF78BFAFEF70BF8284936
:102FC0002D2048630020FEF779F9FFF712FFFFF785
:102FD000D1FE04210020FFF7F1FE22A0FEF7BAFA8D
:102FE00000210120FFF7EAFE22A0FEF7B3FAFFF767
:102FF000C1FE254C012525852349243106E008889A
:10300000E28C1044E084208D401C2085208D6428B3
:10301000F5D9E08C6421B0FBF1F0E084E08CFDF7A1
:1030200041F99FED1A1B53EC112BFDF7C9F8FDF781
:1030300046F9E08400211748FEF7AEF81548427AB9
:10304000017AC07900F028F8FEF74EFBFFF75CFD2F
:1030500000F05AF8FDF72AFBCDE70000001002400F
:1030600000000140202020204D4143482044494594
:103070004E3A200020444F4E4720484F2048454EAE
:103080002047494F2000000000000020713D0AD772
:10309000A370F13F84020020F0B5194B02EB42040B
:1030A00003EB84030B4413F8796C164B03EB840396
:1030B0000B4413F8795C2B1A5FB2114B2A3B02299F
:1030C00001D10E2A07D0002F0DDC401B401C1877C1
:1030D0000C4884300CE03044401E18770848843097
:1030E00090F8310009E03044401E187704488430DD
:1030F00000EB8400084410F8790C5877F0BD00000C
:103100002A000020320100202DE9F0412B4D687982
:103110002B4C94F90B100126DFF8A88088420ED1C1
:10312000287994F90C10884209D1287894F90D1067
:10313000884204D102214046FDF7DEFBE673687940
:1031400094F91E10002788420ED1287994F91F1097
:10315000884209D1287894F92010884204D10221AC
:103160004046FDF7CBFBE773687994F9121088426B
:103170000ED1287994F91310884209D1287894F94E
:103180001410884204D120214046FDF7B5FBE673B8
:10319000687994F9151088420ED1287994F916109F
:1031A000884209D1287894F91710884204D1202147
:1031B0004046FDF7A3FBE773BDE8F08184020020E1
:1031C0000000002000100240E8310008000000204C
:1031D000840200003A040008203300088402002022
:1031E0001C040000841500081201720A4A0F06022E
:1031F0001801382A1112101B121314151718191A56
:103200001B1D1B1C1D1E010204050607080A090BD5
:103210000B0C0D0E1010121214151415162118088F
:103220001C1D01020102032148130808090A0B0DA5
:103230000B0D0D0F1011131314141617423A011F22
:10324000494229404B0F10432B16161F2B191B43C5
:103250002B03031F1B0809421A0C214C110B0C54A1
:103260002A0754390C990BB918490C890BC91869EC
:103270000C990BF93C590CF96018290F0E10050E2A
:103280000C0C0A080806060403050303021F1D1B95
:103290001B19191716161515131311100F0E0D0CF7
:1032A0000A0C0A211B07051F2D1F011F1D212819AC
:1032B00018181616141314131210100E0D0D0C0BF3
:1032C0000A080907070504031F380F1C1A1C1A1ADD
:1032D000181716141412121110431B0B0A1F2C0678
:1032E0000506431A1E211F1A1917181717620D21F8
:1032F00011110F0EA7B9CB790B0913E3190C790B38
:1033000009103C590CF960011A1D1F1C1F1E0249AF
:10331000058A1D0C119324F4294A29484100000014
:040000050800018965
:00000001FF
